{
  "transactions": [
    {
      "hash": "0x1bbdbefc673873f63e43d71079a66ee7147a693ba4ce4765704f7f994d1634b6",
      "transactionType": "CREATE",
      "contractName": "ZkExecutionMinterV2",
      "contractAddress": "0x5e24ff21894e54bc315ad17ffa29be3844ff3dc3",
      "function": null,
      "arguments": [
        "0x0b144E07A0826182B6b59788c34b32Bfa86Fb711",
        "0x17436284Cdc6b86F9281BBdc77161453ef1C9728",
        "0xb78810f2e9557907cf9865797240661414e8102326cfdd8d8bc7879d58ca57cb",
        "100000000000000000",
        "1000000000000000000",
        "10000000000000000000"
      ],
      "transaction": {
        "from": "0xa37558777391cbdc2866d358298782394c4204af",
        "to": null,
        "gas": "0x174cbc",
        "value": "0x0",
        "input": "0x610140604052348015610010575f5ffd5b5060405161156538038061156583398101604081905261002f91610159565b6001600160a01b03808716608052851660a05260c084905260e08390526101008290526101208190526100625f33610099565b5061008d7f65d7a28e3265b37a6474929f336521b332c1681b933f6cb9f3376673440d862a33610099565b505050505050506101b3565b5f828152602081815260408083206001600160a01b038516845290915281205460ff16610139575f838152602081815260408083206001600160a01b03861684529091529020805460ff191660011790556100f13390565b6001600160a01b0316826001600160a01b0316847f2f8788117e7eff1d82e926ec794901d17c78024a50270940304540a733656f0d60405160405180910390a450600161013c565b505f5b92915050565b6001600160a01b0381168114610156575f5ffd5b50565b5f5f5f5f5f5f60c0878903121561016e575f5ffd5b865161017981610142565b602088015190965061018a81610142565b6040880151606089015160808a015160a0909a0151989b929a5090989097909650945092505050565b60805160a05160c05160e05161010051610120516113416102245f395f81816101d20152610a2501525f818161033401526109fe01525f818161028f01526109be01525f818161024a015261080701525f81816102fa0152610b1201525f818161016301526107d601526113415ff3fe608060405234801561000f575f5ffd5b5060043610610132575f3560e01c80636bc63893116100b4578063a217fddf11610079578063a217fddf146102ee578063b1e7eb3e146102f5578063d547741f1461031c578063e37209de1461032f578063e63ab1e914610356578063f0455c701461037d575f5ffd5b80636bc6389314610277578063757c47c61461028a57806381c5de3c146102b15780638456cb59146102d357806391d14854146102db575f5ffd5b80632f2ff15d116100fa5780632f2ff15d1461021557806336568abe1461022a5780633f4ba83a1461023d578063549206ed146102455780635c975abb1461026c575f5ffd5b806301ffc9a71461013657806308c84e701461015e578063248a9ca31461019d5780632917c4b7146101cd5780632b4acd59146101f4575b5f5ffd5b610149610144366004610edd565b61039f565b60405190151581526020015b60405180910390f35b6101857f000000000000000000000000000000000000000000000000000000000000000081565b6040516001600160a01b039091168152602001610155565b6101bf6101ab366004610f0b565b5f9081526020819052604090206001015490565b604051908152602001610155565b6101bf7f000000000000000000000000000000000000000000000000000000000000000081565b610207610202366004610fbd565b6103d5565b6040516101559291906110f2565b610228610223366004611106565b6106cc565b005b610228610238366004611106565b6106f6565b61022861072e565b6101bf7f000000000000000000000000000000000000000000000000000000000000000081565b60015460ff16610149565b610228610285366004611174565b610763565b6101bf7f000000000000000000000000000000000000000000000000000000000000000081565b6101496102bf366004610f0b565b60026020525f908152604090205460ff1681565b610228610b76565b6101496102e9366004611106565b610ba8565b6101bf5f81565b6101857f000000000000000000000000000000000000000000000000000000000000000081565b61022861032a366004611106565b610bd0565b6101bf7f000000000000000000000000000000000000000000000000000000000000000081565b6101bf7f65d7a28e3265b37a6474929f336521b332c1681b933f6cb9f3376673440d862a81565b61014961038b366004610f0b565b60036020525f908152604090205460ff1681565b5f6001600160e01b03198216637965db0b60e01b14806103cf57506301ffc9a760e01b6001600160e01b03198316145b92915050565b60c08101515f9081908190600116156103f6576103f36008826111f2565b90505b60c0840151600216156104115761040e6008826111f2565b90505b60c08401516004161561042c576104296006826111f2565b90505b60c084015160081615610447576104446004826111f2565b90505b60c0840151601016156104625761045f6004826111f2565b90505b60c08401516020161561047d5761047a6003826111f2565b90505b60c084015160401615610498576104956003826111f2565b90505b60c0840151608016156104b3576104b06002826111f2565b90505b60c084015161010016156104cf576104cc6002826111f2565b90505b60c084015161020016156104eb576104e86001826111f2565b90505b5f8460e001516001600160401b03165f14610513578460e001516001600160401b0316610516565b60015b90505f610523825f610bf4565b90505f8661016001516001600160401b03165f1461054f578661016001516001600160401b0316610552565b60015b90505f818861010001516001600160401b031660026105719190611205565b111561057e57505f6105ae565b60148861010001516001600160401b0316116105a8578761010001516001600160401b03166105ab565b60145b90505b5f60648961012001516001600160401b0316116105d9578861012001516001600160401b03166105dc565b60645b90505f60648a61014001516001600160401b031611610609578961014001516001600160401b031661060c565b60645b90505f61061a826002611205565b610625846003611205565b61063086600f611205565b61063b896064611205565b61064591906111f2565b61064f91906111f2565b61065991906111f2565b90505f610667896005611205565b6106729060646111f2565b905061067e8183611205565b9a506127108b1015610692575f99506106be565b6175308b10156106a557600199506106be565b620111708b10156106b957600299506106be565b600399505b505050505050505050915091565b5f828152602081905260409020600101546106e681610c9c565b6106f08383610ca6565b50505050565b6001600160a01b038116331461071f5760405163334bd91960e11b815260040160405180910390fd5b6107298282610d35565b505050565b7f65d7a28e3265b37a6474929f336521b332c1681b933f6cb9f3376673440d862a61075881610c9c565b610760610d9e565b50565b61076b610df0565b5f6002838360405161077e92919061121c565b602060405180830381855afa158015610799573d5f5f3e3d5ffd5b5050506040513d601f19601f820116820180604052508101906107bc919061122b565b60405163ab750e7560e01b81529091506001600160a01b037f0000000000000000000000000000000000000000000000000000000000000000169063ab750e759061083190889088907f0000000000000000000000000000000000000000000000000000000000000000908790600401611242565b5f6040518083038186803b158015610847575f5ffd5b505afa158015610859573d5f5f3e3d5ffd5b505f925061086c91505083850185610fbd565b6040808201515f9081526003602052205490915060ff16156108b2578060400151604051633afa951f60e11b81526004016108a991815260200190565b60405180910390fd5b6020808201515f9081526002909152604090205460ff16156108ef578060200151604051635fd8aaa760e11b81526004016108a991815260200190565b600a6001600160401b03168161016001516001600160401b0316108061092d57506105dc6001600160401b03168161016001516001600160401b0316115b1561095d57610160810151604051630ad05e5360e21b81526001600160401b0390911660048201526024016108a9565b5f5f610968836103d5565b90925090505f816003811115610980576109806110be565b036109a15760405163118307ab60e21b8152600481018390526024016108a9565b5f60018260038111156109b6576109b66110be565b036109e257507f0000000000000000000000000000000000000000000000000000000000000000610a45565b60028260038111156109f6576109f66110be565b03610a2257507f0000000000000000000000000000000000000000000000000000000000000000610a45565b507f00000000000000000000000000000000000000000000000000000000000000005b604084810180515f908152600360209081528382208054600160ff199182168117909255828a018051855260029093529285902080549093161790915551865191516060880151608089015160a08a01516101608b0151965194966001600160a01b03909616957f87c1af13eddafd73997b378573c7c51babd89a59167c4810800dfca60d911de895610ae29594939291908c908c908c90611280565b60405180910390a383516040516340c10f1960e01b81526001600160a01b039182166004820152602481018390527f0000000000000000000000000000000000000000000000000000000000000000909116906340c10f19906044015f604051808303815f87803b158015610b55575f5ffd5b505af1158015610b67573d5f5f3e3d5ffd5b50505050505050505050505050565b7f65d7a28e3265b37a6474929f336521b332c1681b933f6cb9f3376673440d862a610ba081610c9c565b610760610e16565b5f918252602082815260408084206001600160a01b0393909316845291905290205460ff1690565b5f82815260208190526040902060010154610bea81610c9c565b6106f08383610d35565b5f5f610c72845f60076fffffffffffffffffffffffffffffffff8311901b905060066001600160401b0383831c11901b17600563ffffffff83831c11901b17600461ffff83831c11901b17600360ff83831c11901b176002600f83831c116d010102020202030303030303030360801b911b9190911791821c1a1790565b9050610c94610c8084610e51565b8015610c8f575084826001901b105b151590565b019392505050565b6107608133610e7d565b5f610cb18383610ba8565b610d2e575f838152602081815260408083206001600160a01b03861684529091529020805460ff19166001179055610ce63390565b6001600160a01b0316826001600160a01b0316847f2f8788117e7eff1d82e926ec794901d17c78024a50270940304540a733656f0d60405160405180910390a45060016103cf565b505f6103cf565b5f610d408383610ba8565b15610d2e575f838152602081815260408083206001600160a01b0386168085529252808320805460ff1916905551339286917ff6391f5c32d9c69d2a47ea670b442974b53935d1edc7fd64eb21e047a839171b9190a45060016103cf565b610da6610eba565b6001805460ff191690557f5db9ee0a495bf2e6ff9c91a7834c1ba4fdd244a5e8aa4e537bd38aeae4b073aa335b6040516001600160a01b03909116815260200160405180910390a1565b60015460ff1615610e145760405163d93c066560e01b815260040160405180910390fd5b565b610e1e610df0565b6001805460ff1916811790557f62e78cea01bee320cd4e420270b5ea74000d11b0c9f74754ebdbfc544b05a25833610dd3565b5f6002826003811115610e6657610e666110be565b610e7091906112de565b60ff166001149050919050565b610e878282610ba8565b610eb65760405163e2517d3f60e01b81526001600160a01b0382166004820152602481018390526044016108a9565b5050565b60015460ff16610e1457604051638dfc202b60e01b815260040160405180910390fd5b5f60208284031215610eed575f5ffd5b81356001600160e01b031981168114610f04575f5ffd5b9392505050565b5f60208284031215610f1b575f5ffd5b5035919050565b6040516101c081016001600160401b0381118282101715610f5157634e487b7160e01b5f52604160045260245ffd5b60405290565b80356001600160a01b0381168114610f6d575f5ffd5b919050565b8035600381900b8114610f6d575f5ffd5b80356001600160401b0381168114610f6d575f5ffd5b803561ffff81168114610f6d575f5ffd5b803563ffffffff81168114610f6d575f5ffd5b5f6101c0828403128015610fcf575f5ffd5b50610fd8610f22565b610fe183610f57565b815260208381013590820152604080840135908201526060808401359082015261100d60808401610f72565b608082015261101e60a08401610f83565b60a082015261102f60c08401610f99565b60c082015261104060e08401610f83565b60e08201526110526101008401610f83565b6101008201526110656101208401610f83565b6101208201526110786101408401610f83565b61014082015261108b6101608401610f83565b61016082015261109e6101808401610faa565b6101808201526110b16101a08401610faa565b6101a08201529392505050565b634e487b7160e01b5f52602160045260245ffd5b600481106110ee57634e487b7160e01b5f52602160045260245ffd5b9052565b82815260408101610f0460208301846110d2565b5f5f60408385031215611117575f5ffd5b8235915061112760208401610f57565b90509250929050565b5f5f83601f840112611140575f5ffd5b5081356001600160401b03811115611156575f5ffd5b60208301915083602082850101111561116d575f5ffd5b9250929050565b5f5f5f5f60408587031215611187575f5ffd5b84356001600160401b0381111561119c575f5ffd5b6111a887828801611130565b90955093505060208501356001600160401b038111156111c6575f5ffd5b6111d287828801611130565b95989497509550505050565b634e487b7160e01b5f52601160045260245ffd5b808201808211156103cf576103cf6111de565b80820281158282048414176103cf576103cf6111de565b818382375f9101908152919050565b5f6020828403121561123b575f5ffd5b5051919050565b60608152836060820152838560808301375f608085830101525f6080601f19601f870116830101905083602083015282604083015295945050505050565b5f610100820190508982528860208301528760030b60408301526001600160401b03871660608301526001600160401b03861660808301528460a08301526112cb60c08301856110d2565b8260e08301529998505050505050505050565b5f60ff8316806112fc57634e487b7160e01b5f52601260045260245ffd5b8060ff8416069150509291505056fea26469706673582212201259d6eee0db5855d51223b9673005a35a1abe0a235f95551494bc6dfa171fbd64736f6c634300081c00330000000000000000000000000b144e07a0826182b6b59788c34b32bfa86fb71100000000000000000000000017436284cdc6b86f9281bbdc77161453ef1c9728b78810f2e9557907cf9865797240661414e8102326cfdd8d8bc7879d58ca57cb000000000000000000000000000000000000000000000000016345785d8a00000000000000000000000000000000000000000000000000000de0b6b3a76400000000000000000000000000000000000000000000000000008ac7230489e80000",
        "nonce": "0xa",
        "chainId": "0x14a34"
      },
      "additionalContracts": [],
      "isFixedGasLimit": false
    },
    {
      "hash": "0xf0b62b9fbb46675821c2aebf33cf5420512c6f3ef4505ab15399607260868ea4",
      "transactionType": "CALL",
      "contractName": null,
      "contractAddress": "0x17436284cdc6b86f9281bbdc77161453ef1c9728",
      "function": "grantRole(bytes32,address)",
      "arguments": [
        "0x9f2df0fed2c77648de5860a4cc508cd0818c85b8b8a1ab4ceeef8d981c8956a6",
        "0x5e24Ff21894e54BC315AD17ffa29be3844ff3dC3"
      ],
      "transaction": {
        "from": "0xa37558777391cbdc2866d358298782394c4204af",
        "to": "0x17436284cdc6b86f9281bbdc77161453ef1c9728",
        "gas": "0x12627",
        "value": "0x0",
        "input": "0x2f2ff15d9f2df0fed2c77648de5860a4cc508cd0818c85b8b8a1ab4ceeef8d981c8956a60000000000000000000000005e24ff21894e54bc315ad17ffa29be3844ff3dc3",
        "nonce": "0xb",
        "chainId": "0x14a34"
      },
      "additionalContracts": [],
      "isFixedGasLimit": false
    },
    {
      "hash": "0x4bb7228ce4a07941d0bba1e0539f9b12dcf349fc5e4ac16716ff1dd7571a8ac6",
      "transactionType": "CALL",
      "contractName": null,
      "contractAddress": "0x17436284cdc6b86f9281bbdc77161453ef1c9728",
      "function": "revokeRole(bytes32,address)",
      "arguments": [
        "0x9f2df0fed2c77648de5860a4cc508cd0818c85b8b8a1ab4ceeef8d981c8956a6",
        "0x03Bd354738F5776c5c00a30024192C61C3f53C97"
      ],
      "transaction": {
        "from": "0xa37558777391cbdc2866d358298782394c4204af",
        "to": "0x17436284cdc6b86f9281bbdc77161453ef1c9728",
        "gas": "0x9f88",
        "value": "0x0",
        "input": "0xd547741f9f2df0fed2c77648de5860a4cc508cd0818c85b8b8a1ab4ceeef8d981c8956a600000000000000000000000003bd354738f5776c5c00a30024192c61c3f53c97",
        "nonce": "0xc",
        "chainId": "0x14a34"
      },
      "additionalContracts": [],
      "isFixedGasLimit": false
    },
    {
      "hash": "0x0691ac68e903ccafe1c51c5b5204ac9b0aedfc54020dc86cda0b914b8d12481a",
      "transactionType": "CALL",
      "contractName": null,
      "contractAddress": "0x03bd354738f5776c5c00a30024192c61c3f53c97",
      "function": "pause()",
      "arguments": [],
      "transaction": {
        "from": "0xa37558777391cbdc2866d358298782394c4204af",
        "to": "0x03bd354738f5776c5c00a30024192c61c3f53c97",
        "gas": "0xfdee",
        "value": "0x0",
        "input": "0x8456cb59",
        "nonce": "0xd",
        "chainId": "0x14a34"
      },
      "additionalContracts": [],
      "isFixedGasLimit": false
    }
  ],
  "receipts": [
    {
      "type": "0x2",
      "status": "0x1",
      "cumulativeGasUsed": "0x4c42ee",
      "logs": [
        {
          "address": "0x5e24ff21894e54bc315ad17ffa29be3844ff3dc3",
          "topics": [
            "0x2f8788117e7eff1d82e926ec794901d17c78024a50270940304540a733656f0d",
            "0x0000000000000000000000000000000000000000000000000000000000000000",
            "0x000000000000000000000000a37558777391cbdc2866d358298782394c4204af",
            "0x000000000000000000000000a37558777391cbdc2866d358298782394c4204af"
          ],
          "data": "0x",
          "blockHash": "0x0000000000000000000000000000000000000000000000000000000000000000",
          "blockNumber": "0x275b88f",
          "blockTimestamp": "0x69fecffe",
          "transactionHash": "0x1bbdbefc673873f63e43d71079a66ee7147a693ba4ce4765704f7f994d1634b6",
          "transactionIndex": "0xd",
          "logIndex": "0xac",
          "removed": false
        },
        {
          "address": "0x5e24ff21894e54bc315ad17ffa29be3844ff3dc3",
          "topics": [
            "0x2f8788117e7eff1d82e926ec794901d17c78024a50270940304540a733656f0d",
            "0x65d7a28e3265b37a6474929f336521b332c1681b933f6cb9f3376673440d862a",
            "0x000000000000000000000000a37558777391cbdc2866d358298782394c4204af",
            "0x000000000000000000000000a37558777391cbdc2866d358298782394c4204af"
          ],
          "data": "0x",
          "blockHash": "0x0000000000000000000000000000000000000000000000000000000000000000",
          "blockNumber": "0x275b88f",
          "blockTimestamp": "0x69fecffe",
          "transactionHash": "0x1bbdbefc673873f63e43d71079a66ee7147a693ba4ce4765704f7f994d1634b6",
          "transactionIndex": "0xd",
          "logIndex": "0xad",
          "removed": false
        }
      ],
      "logsBloom": "0x00000004000000000000000000000000000000000000000000000000000000000000000000000000000000000000000000000000040000000000000000000000000000000000000000000000000000000000000000000000000000000000000000000000020000000000000000000800000000000000000000000000000000000000000000000000000000000000008000000000000000000000001000000000000000000000000000000000000000000000400000000000001000000000000000000000000000000000000020000000000000000000000100002000000020000000000000000000000008000000000000000400000000000004000000000000",
      "transactionHash": "0x1bbdbefc673873f63e43d71079a66ee7147a693ba4ce4765704f7f994d1634b6",
      "transactionIndex": "0xd",
      "blockHash": "0x0000000000000000000000000000000000000000000000000000000000000000",
      "blockNumber": "0x275b88f",
      "gasUsed": "0x11ec42",
      "effectiveGasPrice": "0x66ef90",
      "blobGasUsed": "0x1568ec",
      "from": "0xa37558777391cbdc2866d358298782394c4204af",
      "to": null,
      "contractAddress": "0x5e24ff21894e54bc315ad17ffa29be3844ff3dc3",
      "l1GasPrice": "0xd7",
      "l1GasUsed": "0xc4af",
      "l1Fee": "0x450",
      "l1BaseFeeScalar": "0x44d",
      "l1BlobBaseFee": "0xb",
      "l1BlobBaseFeeScalar": "0xa118b",
      "daFootprintGasScalar": "0x1be"
    },
    {
      "type": "0x2",
      "status": "0x1",
      "cumulativeGasUsed": "0x4d0c10",
      "logs": [
        {
          "address": "0x17436284cdc6b86f9281bbdc77161453ef1c9728",
          "topics": [
            "0x2f8788117e7eff1d82e926ec794901d17c78024a50270940304540a733656f0d",
            "0x9f2df0fed2c77648de5860a4cc508cd0818c85b8b8a1ab4ceeef8d981c8956a6",
            "0x0000000000000000000000005e24ff21894e54bc315ad17ffa29be3844ff3dc3",
            "0x000000000000000000000000a37558777391cbdc2866d358298782394c4204af"
          ],
          "data": "0x",
          "blockHash": "0x0000000000000000000000000000000000000000000000000000000000000000",
          "blockNumber": "0x275b88f",
          "blockTimestamp": "0x69fecffe",
          "transactionHash": "0xf0b62b9fbb46675821c2aebf33cf5420512c6f3ef4505ab15399607260868ea4",
          "transactionIndex": "0xe",
          "logIndex": "0xae",
          "removed": false
        }
      ],
      "logsBloom": "0x00000004000000000000000000000000000000000000000000100000000000000000000000000000000000000002004000000000040000000000000000000000004000000000000000000000000000000000000000000000000000000000000000000000000000000800000000000000000000000000000000000000001000000000000000000000000000000000000000000000000000000000001000000000000000000000000000000000000000000000000004000000001000000000000000000000000000000000000000000000001000000000000100000000000000000000000000000000000008000001000000000000000000000000000000000000",
      "transactionHash": "0xf0b62b9fbb46675821c2aebf33cf5420512c6f3ef4505ab15399607260868ea4",
      "transactionIndex": "0xe",
      "blockHash": "0x0000000000000000000000000000000000000000000000000000000000000000",
      "blockNumber": "0x275b88f",
      "gasUsed": "0xc922",
      "effectiveGasPrice": "0x66ef90",
      "blobGasUsed": "0xb8ac",
      "from": "0xa37558777391cbdc2866d358298782394c4204af",
      "to": "0x17436284cdc6b86f9281bbdc77161453ef1c9728",
      "contractAddress": null,
      "l1GasPrice": "0xd7",
      "l1GasUsed": "0x6a4",
      "l1Fee": "0x97e",
      "l1BaseFeeScalar": "0x44d",
      "l1BlobBaseFee": "0xb",
      "l1BlobBaseFeeScalar": "0xa118b",
      "daFootprintGasScalar": "0x1be"
    },
    {
      "type": "0x2",
      "status": "0x1",
      "cumulativeGasUsed": "0x4d7f90",
      "logs": [
        {
          "address": "0x17436284cdc6b86f9281bbdc77161453ef1c9728",
          "topics": [
            "0xf6391f5c32d9c69d2a47ea670b442974b53935d1edc7fd64eb21e047a839171b",
            "0x9f2df0fed2c77648de5860a4cc508cd0818c85b8b8a1ab4ceeef8d981c8956a6",
            "0x00000000000000000000000003bd354738f5776c5c00a30024192c61c3f53c97",
            "0x000000000000000000000000a37558777391cbdc2866d358298782394c4204af"
          ],
          "data": "0x",
          "blockHash": "0x0000000000000000000000000000000000000000000000000000000000000000",
          "blockNumber": "0x275b88f",
          "blockTimestamp": "0x69fecffe",
          "transactionHash": "0x4bb7228ce4a07941d0bba1e0539f9b12dcf349fc5e4ac16716ff1dd7571a8ac6",
          "transactionIndex": "0xf",
          "logIndex": "0xaf",
          "removed": false
        }
      ],
      "logsBloom": "0x00000000000000000000000000000000000000000000000000000000000000000000000000000000000000000002024000200000040000000000002000000000004000000000000000000000000000000000000000000000000000000000000040000000000000000800000000000000000000000000000000000000001000000000000040000000000000000000000000000000000000000000001000000000000000000000000000000000000000020000000000000000000000000000000000000000000000000000000000000000001000000000000000000000000000000000000000000000000008000000000000000000000000000000000000000000",
      "transactionHash": "0x4bb7228ce4a07941d0bba1e0539f9b12dcf349fc5e4ac16716ff1dd7571a8ac6",
      "transactionIndex": "0xf",
      "blockHash": "0x0000000000000000000000000000000000000000000000000000000000000000",
      "blockNumber": "0x275b88f",
      "gasUsed": "0x7380",
      "effectiveGasPrice": "0x66ef90",
      "blobGasUsed": "0xb6ee",
      "from": "0xa37558777391cbdc2866d358298782394c4204af",
      "to": "0x17436284cdc6b86f9281bbdc77161453ef1c9728",
      "contractAddress": null,
      "l1GasPrice": "0xd7",
      "l1GasUsed": "0x697",
      "l1Fee": "0x450",
      "l1BaseFeeScalar": "0x44d",
      "l1BlobBaseFee": "0xb",
      "l1BlobBaseFeeScalar": "0xa118b",
      "daFootprintGasScalar": "0x1be"
    },
    {
      "type": "0x2",
      "status": "0x1",
      "cumulativeGasUsed": "0x4e3768",
      "logs": [
        {
          "address": "0x03bd354738f5776c5c00a30024192c61c3f53c97",
          "topics": [
            "0x62e78cea01bee320cd4e420270b5ea74000d11b0c9f74754ebdbfc544b05a258"
          ],
          "data": "0x000000000000000000000000a37558777391cbdc2866d358298782394c4204af",
          "blockHash": "0x0000000000000000000000000000000000000000000000000000000000000000",
          "blockNumber": "0x275b88f",
          "blockTimestamp": "0x69fecffe",
          "transactionHash": "0x0691ac68e903ccafe1c51c5b5204ac9b0aedfc54020dc86cda0b914b8d12481a",
          "transactionIndex": "0x10",
          "logIndex": "0xb0",
          "removed": false
        }
      ],
      "logsBloom": "0x00000000000000000000000000000000000000000000000000000000000000000000000000000000000000000000000000000000000001000000000000000000000000000000000000000000000000000000000000000400000000000000000000000000000000000000000000000000000000010000000000000000000000000000000000000000000008000000000000000000000100000000000000000000000000000000000004000000000000000000000000000000000000000000000000000000000000000000000000000000000000000000000000000000000000000000000000000000000000000000000000000000000000000000000000000000",
      "transactionHash": "0x0691ac68e903ccafe1c51c5b5204ac9b0aedfc54020dc86cda0b914b8d12481a",
      "transactionIndex": "0x10",
      "blockHash": "0x0000000000000000000000000000000000000000000000000000000000000000",
      "blockNumber": "0x275b88f",
      "gasUsed": "0xb7d8",
      "effectiveGasPrice": "0x66ef90",
      "blobGasUsed": "0xae38",
      "from": "0xa37558777391cbdc2866d358298782394c4204af",
      "to": "0x03bd354738f5776c5c00a30024192c61c3f53c97",
      "contractAddress": null,
      "l1GasPrice": "0xd7",
      "l1GasUsed": "0x640",
      "l1Fee": "0x97e",
      "l1BaseFeeScalar": "0x44d",
      "l1BlobBaseFee": "0xb",
      "l1BlobBaseFeeScalar": "0xa118b",
      "daFootprintGasScalar": "0x1be"
    }
  ],
  "libraries": [],
  "pending": [],
  "returns": {
    "minter": {
      "internal_type": "contract ZkExecutionMinterV2",
      "value": "0x5e24Ff21894e54BC315AD17ffa29be3844ff3dC3"
    }
  },
  "timestamp": 1778307069767,
  "chain": 84532,
  "commit": "b406fed"
}