{
  "transactions": [
    {
      "hash": "0x8ec7640ccfed9c2d3787be6bf47d8a612abb7394e4a973e511ebb99634d56d7c",
      "transactionType": "CREATE",
      "contractName": "Windy",
      "contractAddress": "0x8c64a92e3a12f5ca4050b5fb90804bd24cd653ca",
      "function": null,
      "arguments": null,
      "transaction": {
        "from": "0xce1339f8f499ab0ca276f949f636082c9c305167",
        "to": null,
        "gas": "0xfdfd2",
        "value": "0x0",
        "input": "0x608060405234801561000f575f5ffd5b506040518060400160405280600581526020016457696e647960d81b81525060405180604001604052806004815260200163574e445960e01b815250816003908161005a91906101c1565b50600461006782826101c1565b5061007691505f90503361007c565b5061027b565b5f8281526005602090815260408083206001600160a01b038516845290915281205460ff16610120575f8381526005602090815260408083206001600160a01b03861684529091529020805460ff191660011790556100d83390565b6001600160a01b0316826001600160a01b0316847f2f8788117e7eff1d82e926ec794901d17c78024a50270940304540a733656f0d60405160405180910390a4506001610123565b505f5b92915050565b634e487b7160e01b5f52604160045260245ffd5b600181811c9082168061015157607f821691505b60208210810361016f57634e487b7160e01b5f52602260045260245ffd5b50919050565b601f8211156101bc57805f5260205f20601f840160051c8101602085101561019a5750805b601f840160051c820191505b818110156101b9575f81556001016101a6565b50505b505050565b81516001600160401b038111156101da576101da610129565b6101ee816101e8845461013d565b84610175565b6020601f821160018114610220575f83156102095750848201515b5f19600385901b1c1916600184901b1784556101b9565b5f84815260208120601f198516915b8281101561024f578785015182556020948501946001909201910161022f565b508482101561026c57868401515f19600387901b60f8161c191681555b50505050600190811b01905550565b610c0e806102885f395ff3fe608060405234801561000f575f5ffd5b5060043610610132575f3560e01c806340c10f19116100b457806395d89b411161007957806395d89b411461028a578063a217fddf14610292578063a9059cbb14610299578063d5391393146102ac578063d547741f146102d3578063dd62ed3e146102e6575f5ffd5b806340c10f191461021657806342966c681461022957806370a082311461023c57806379cc67901461026457806391d1485414610277575f5ffd5b8063248a9ca3116100fa578063248a9ca3146101ab5780632f2ff15d146101cd578063313ce567146101e257806332cb6b0c146101f157806336568abe14610203575f5ffd5b806301ffc9a71461013657806306fdde031461015e578063095ea7b31461017357806318160ddd1461018657806323b872dd14610198575b5f5ffd5b610149610144366004610a1f565b61031e565b60405190151581526020015b60405180910390f35b610166610354565b6040516101559190610a4d565b610149610181366004610a9d565b6103e4565b6002545b604051908152602001610155565b6101496101a6366004610ac5565b6103fb565b61018a6101b9366004610aff565b5f9081526005602052604090206001015490565b6101e06101db366004610b16565b61041e565b005b60405160128152602001610155565b61018a6a115eec47f6cf7e3500000081565b6101e0610211366004610b16565b610448565b6101e0610224366004610a9d565b610480565b6101e0610237366004610aff565b610510565b61018a61024a366004610b40565b6001600160a01b03165f9081526020819052604090205490565b6101e0610272366004610a9d565b61051d565b610149610285366004610b16565b610536565b610166610560565b61018a5f81565b6101496102a7366004610a9d565b61056f565b61018a7f9f2df0fed2c77648de5860a4cc508cd0818c85b8b8a1ab4ceeef8d981c8956a681565b6101e06102e1366004610b16565b61057c565b61018a6102f4366004610b59565b6001600160a01b039182165f90815260016020908152604080832093909416825291909152205490565b5f6001600160e01b03198216637965db0b60e01b148061034e57506301ffc9a760e01b6001600160e01b03198316145b92915050565b60606003805461036390610b81565b80601f016020809104026020016040519081016040528092919081815260200182805461038f90610b81565b80156103da5780601f106103b1576101008083540402835291602001916103da565b820191905f5260205f20905b8154815290600101906020018083116103bd57829003601f168201915b5050505050905090565b5f336103f18185856105a0565b5060019392505050565b5f336104088582856105ad565b610413858585610623565b506001949350505050565b5f8281526005602052604090206001015461043881610680565b610442838361068a565b50505050565b6001600160a01b03811633146104715760405163334bd91960e11b815260040160405180910390fd5b61047b828261071b565b505050565b7f9f2df0fed2c77648de5860a4cc508cd0818c85b8b8a1ab4ceeef8d981c8956a66104aa81610680565b5f826104b560025490565b6104bf9190610bb9565b90506a115eec47f6cf7e3500000081111561050657604051637502c12360e11b8152600481018290526a115eec47f6cf7e3500000060248201526044015b60405180910390fd5b6104428484610786565b61051a33826107ba565b50565b6105288233836105ad565b61053282826107ba565b5050565b5f9182526005602090815260408084206001600160a01b0393909316845291905290205460ff1690565b60606004805461036390610b81565b5f336103f1818585610623565b5f8281526005602052604090206001015461059681610680565b610442838361071b565b61047b83838360016107ee565b6001600160a01b038381165f908152600160209081526040808320938616835292905220545f19811015610442578181101561061557604051637dc7a0d960e11b81526001600160a01b038416600482015260248101829052604481018390526064016104fd565b61044284848484035f6107ee565b6001600160a01b03831661064c57604051634b637e8f60e11b81525f60048201526024016104fd565b6001600160a01b0382166106755760405163ec442f0560e01b81525f60048201526024016104fd565b61047b8383836108c0565b61051a81336109e6565b5f6106958383610536565b610714575f8381526005602090815260408083206001600160a01b03861684529091529020805460ff191660011790556106cc3390565b6001600160a01b0316826001600160a01b0316847f2f8788117e7eff1d82e926ec794901d17c78024a50270940304540a733656f0d60405160405180910390a450600161034e565b505f61034e565b5f6107268383610536565b15610714575f8381526005602090815260408083206001600160a01b0386168085529252808320805460ff1916905551339286917ff6391f5c32d9c69d2a47ea670b442974b53935d1edc7fd64eb21e047a839171b9190a450600161034e565b6001600160a01b0382166107af5760405163ec442f0560e01b81525f60048201526024016104fd565b6105325f83836108c0565b6001600160a01b0382166107e357604051634b637e8f60e11b81525f60048201526024016104fd565b610532825f836108c0565b6001600160a01b0384166108175760405163e602df0560e01b81525f60048201526024016104fd565b6001600160a01b03831661084057604051634a1406b160e11b81525f60048201526024016104fd565b6001600160a01b038085165f908152600160209081526040808320938716835292905220829055801561044257826001600160a01b0316846001600160a01b03167f8c5be1e5ebec7d5bd14f71427d1e84f3dd0314c0f7b2291e5b200ac8c7c3b925846040516108b291815260200190565b60405180910390a350505050565b6001600160a01b0383166108ea578060025f8282546108df9190610bb9565b9091555061095a9050565b6001600160a01b0383165f908152602081905260409020548181101561093c5760405163391434e360e21b81526001600160a01b038516600482015260248101829052604481018390526064016104fd565b6001600160a01b0384165f9081526020819052604090209082900390555b6001600160a01b03821661097657600280548290039055610994565b6001600160a01b0382165f9081526020819052604090208054820190555b816001600160a01b0316836001600160a01b03167fddf252ad1be2c89b69c2b068fc378daa952ba7f163c4a11628f55a4df523b3ef836040516109d991815260200190565b60405180910390a3505050565b6109f08282610536565b6105325760405163e2517d3f60e01b81526001600160a01b0382166004820152602481018390526044016104fd565b5f60208284031215610a2f575f5ffd5b81356001600160e01b031981168114610a46575f5ffd5b9392505050565b602081525f82518060208401528060208501604085015e5f604082850101526040601f19601f83011684010191505092915050565b80356001600160a01b0381168114610a98575f5ffd5b919050565b5f5f60408385031215610aae575f5ffd5b610ab783610a82565b946020939093013593505050565b5f5f5f60608486031215610ad7575f5ffd5b610ae084610a82565b9250610aee60208501610a82565b929592945050506040919091013590565b5f60208284031215610b0f575f5ffd5b5035919050565b5f5f60408385031215610b27575f5ffd5b82359150610b3760208401610a82565b90509250929050565b5f60208284031215610b50575f5ffd5b610a4682610a82565b5f5f60408385031215610b6a575f5ffd5b610b7383610a82565b9150610b3760208401610a82565b600181811c90821680610b9557607f821691505b602082108103610bb357634e487b7160e01b5f52602260045260245ffd5b50919050565b8082018082111561034e57634e487b7160e01b5f52601160045260245ffdfea264697066735822122088681114dc55b6fb882f7d2df2dcb5083dcc5be3de1d42e72e49368f5d233a3b64736f6c634300081c0033",
        "nonce": "0x0",
        "chainId": "0x2105"
      },
      "additionalContracts": [],
      "isFixedGasLimit": false
    },
    {
      "hash": "0xe8c0f7b5844877d74ff36962360a5d5531abf9083bf627b18e616b90aaa3af8f",
      "transactionType": "CREATE",
      "contractName": "ZkExecutionMinterV2",
      "contractAddress": "0xc566ab14616662ae92095a72a8cc23bf62b6ff02",
      "function": null,
      "arguments": [
        "0x0b144E07A0826182B6b59788c34b32Bfa86Fb711",
        "0x8c64A92e3a12f5Ca4050b5Fb90804Bd24Cd653CA",
        "0xb78810f2e9557907cf9865797240661414e8102326cfdd8d8bc7879d58ca57cb",
        "100000000000000000",
        "1000000000000000000",
        "10000000000000000000"
      ],
      "transaction": {
        "from": "0xce1339f8f499ab0ca276f949f636082c9c305167",
        "to": null,
        "gas": "0x174cbc",
        "value": "0x0",
        "input": "0x610140604052348015610010575f5ffd5b5060405161156538038061156583398101604081905261002f91610159565b6001600160a01b03808716608052851660a05260c084905260e08390526101008290526101208190526100625f33610099565b5061008d7f65d7a28e3265b37a6474929f336521b332c1681b933f6cb9f3376673440d862a33610099565b505050505050506101b3565b5f828152602081815260408083206001600160a01b038516845290915281205460ff16610139575f838152602081815260408083206001600160a01b03861684529091529020805460ff191660011790556100f13390565b6001600160a01b0316826001600160a01b0316847f2f8788117e7eff1d82e926ec794901d17c78024a50270940304540a733656f0d60405160405180910390a450600161013c565b505f5b92915050565b6001600160a01b0381168114610156575f5ffd5b50565b5f5f5f5f5f5f60c0878903121561016e575f5ffd5b865161017981610142565b602088015190965061018a81610142565b6040880151606089015160808a015160a0909a0151989b929a5090989097909650945092505050565b60805160a05160c05160e05161010051610120516113416102245f395f81816101d20152610a2501525f818161033401526109fe01525f818161028f01526109be01525f818161024a015261080701525f81816102fa0152610b1201525f818161016301526107d601526113415ff3fe608060405234801561000f575f5ffd5b5060043610610132575f3560e01c80636bc63893116100b4578063a217fddf11610079578063a217fddf146102ee578063b1e7eb3e146102f5578063d547741f1461031c578063e37209de1461032f578063e63ab1e914610356578063f0455c701461037d575f5ffd5b80636bc6389314610277578063757c47c61461028a57806381c5de3c146102b15780638456cb59146102d357806391d14854146102db575f5ffd5b80632f2ff15d116100fa5780632f2ff15d1461021557806336568abe1461022a5780633f4ba83a1461023d578063549206ed146102455780635c975abb1461026c575f5ffd5b806301ffc9a71461013657806308c84e701461015e578063248a9ca31461019d5780632917c4b7146101cd5780632b4acd59146101f4575b5f5ffd5b610149610144366004610edd565b61039f565b60405190151581526020015b60405180910390f35b6101857f000000000000000000000000000000000000000000000000000000000000000081565b6040516001600160a01b039091168152602001610155565b6101bf6101ab366004610f0b565b5f9081526020819052604090206001015490565b604051908152602001610155565b6101bf7f000000000000000000000000000000000000000000000000000000000000000081565b610207610202366004610fbd565b6103d5565b6040516101559291906110f2565b610228610223366004611106565b6106cc565b005b610228610238366004611106565b6106f6565b61022861072e565b6101bf7f000000000000000000000000000000000000000000000000000000000000000081565b60015460ff16610149565b610228610285366004611174565b610763565b6101bf7f000000000000000000000000000000000000000000000000000000000000000081565b6101496102bf366004610f0b565b60026020525f908152604090205460ff1681565b610228610b76565b6101496102e9366004611106565b610ba8565b6101bf5f81565b6101857f000000000000000000000000000000000000000000000000000000000000000081565b61022861032a366004611106565b610bd0565b6101bf7f000000000000000000000000000000000000000000000000000000000000000081565b6101bf7f65d7a28e3265b37a6474929f336521b332c1681b933f6cb9f3376673440d862a81565b61014961038b366004610f0b565b60036020525f908152604090205460ff1681565b5f6001600160e01b03198216637965db0b60e01b14806103cf57506301ffc9a760e01b6001600160e01b03198316145b92915050565b60c08101515f9081908190600116156103f6576103f36008826111f2565b90505b60c0840151600216156104115761040e6008826111f2565b90505b60c08401516004161561042c576104296006826111f2565b90505b60c084015160081615610447576104446004826111f2565b90505b60c0840151601016156104625761045f6004826111f2565b90505b60c08401516020161561047d5761047a6003826111f2565b90505b60c084015160401615610498576104956003826111f2565b90505b60c0840151608016156104b3576104b06002826111f2565b90505b60c084015161010016156104cf576104cc6002826111f2565b90505b60c084015161020016156104eb576104e86001826111f2565b90505b5f8460e001516001600160401b03165f14610513578460e001516001600160401b0316610516565b60015b90505f610523825f610bf4565b90505f8661016001516001600160401b03165f1461054f578661016001516001600160401b0316610552565b60015b90505f818861010001516001600160401b031660026105719190611205565b111561057e57505f6105ae565b60148861010001516001600160401b0316116105a8578761010001516001600160401b03166105ab565b60145b90505b5f60648961012001516001600160401b0316116105d9578861012001516001600160401b03166105dc565b60645b90505f60648a61014001516001600160401b031611610609578961014001516001600160401b031661060c565b60645b90505f61061a826002611205565b610625846003611205565b61063086600f611205565b61063b896064611205565b61064591906111f2565b61064f91906111f2565b61065991906111f2565b90505f610667896005611205565b6106729060646111f2565b905061067e8183611205565b9a506127108b1015610692575f99506106be565b6175308b10156106a557600199506106be565b620111708b10156106b957600299506106be565b600399505b505050505050505050915091565b5f828152602081905260409020600101546106e681610c9c565b6106f08383610ca6565b50505050565b6001600160a01b038116331461071f5760405163334bd91960e11b815260040160405180910390fd5b6107298282610d35565b505050565b7f65d7a28e3265b37a6474929f336521b332c1681b933f6cb9f3376673440d862a61075881610c9c565b610760610d9e565b50565b61076b610df0565b5f6002838360405161077e92919061121c565b602060405180830381855afa158015610799573d5f5f3e3d5ffd5b5050506040513d601f19601f820116820180604052508101906107bc919061122b565b60405163ab750e7560e01b81529091506001600160a01b037f0000000000000000000000000000000000000000000000000000000000000000169063ab750e759061083190889088907f0000000000000000000000000000000000000000000000000000000000000000908790600401611242565b5f6040518083038186803b158015610847575f5ffd5b505afa158015610859573d5f5f3e3d5ffd5b505f925061086c91505083850185610fbd565b6040808201515f9081526003602052205490915060ff16156108b2578060400151604051633afa951f60e11b81526004016108a991815260200190565b60405180910390fd5b6020808201515f9081526002909152604090205460ff16156108ef578060200151604051635fd8aaa760e11b81526004016108a991815260200190565b600a6001600160401b03168161016001516001600160401b0316108061092d57506105dc6001600160401b03168161016001516001600160401b0316115b1561095d57610160810151604051630ad05e5360e21b81526001600160401b0390911660048201526024016108a9565b5f5f610968836103d5565b90925090505f816003811115610980576109806110be565b036109a15760405163118307ab60e21b8152600481018390526024016108a9565b5f60018260038111156109b6576109b66110be565b036109e257507f0000000000000000000000000000000000000000000000000000000000000000610a45565b60028260038111156109f6576109f66110be565b03610a2257507f0000000000000000000000000000000000000000000000000000000000000000610a45565b507f00000000000000000000000000000000000000000000000000000000000000005b604084810180515f908152600360209081528382208054600160ff199182168117909255828a018051855260029093529285902080549093161790915551865191516060880151608089015160a08a01516101608b0151965194966001600160a01b03909616957f87c1af13eddafd73997b378573c7c51babd89a59167c4810800dfca60d911de895610ae29594939291908c908c908c90611280565b60405180910390a383516040516340c10f1960e01b81526001600160a01b039182166004820152602481018390527f0000000000000000000000000000000000000000000000000000000000000000909116906340c10f19906044015f604051808303815f87803b158015610b55575f5ffd5b505af1158015610b67573d5f5f3e3d5ffd5b50505050505050505050505050565b7f65d7a28e3265b37a6474929f336521b332c1681b933f6cb9f3376673440d862a610ba081610c9c565b610760610e16565b5f918252602082815260408084206001600160a01b0393909316845291905290205460ff1690565b5f82815260208190526040902060010154610bea81610c9c565b6106f08383610d35565b5f5f610c72845f60076fffffffffffffffffffffffffffffffff8311901b905060066001600160401b0383831c11901b17600563ffffffff83831c11901b17600461ffff83831c11901b17600360ff83831c11901b176002600f83831c116d010102020202030303030303030360801b911b9190911791821c1a1790565b9050610c94610c8084610e51565b8015610c8f575084826001901b105b151590565b019392505050565b6107608133610e7d565b5f610cb18383610ba8565b610d2e575f838152602081815260408083206001600160a01b03861684529091529020805460ff19166001179055610ce63390565b6001600160a01b0316826001600160a01b0316847f2f8788117e7eff1d82e926ec794901d17c78024a50270940304540a733656f0d60405160405180910390a45060016103cf565b505f6103cf565b5f610d408383610ba8565b15610d2e575f838152602081815260408083206001600160a01b0386168085529252808320805460ff1916905551339286917ff6391f5c32d9c69d2a47ea670b442974b53935d1edc7fd64eb21e047a839171b9190a45060016103cf565b610da6610eba565b6001805460ff191690557f5db9ee0a495bf2e6ff9c91a7834c1ba4fdd244a5e8aa4e537bd38aeae4b073aa335b6040516001600160a01b03909116815260200160405180910390a1565b60015460ff1615610e145760405163d93c066560e01b815260040160405180910390fd5b565b610e1e610df0565b6001805460ff1916811790557f62e78cea01bee320cd4e420270b5ea74000d11b0c9f74754ebdbfc544b05a25833610dd3565b5f6002826003811115610e6657610e666110be565b610e7091906112de565b60ff166001149050919050565b610e878282610ba8565b610eb65760405163e2517d3f60e01b81526001600160a01b0382166004820152602481018390526044016108a9565b5050565b60015460ff16610e1457604051638dfc202b60e01b815260040160405180910390fd5b5f60208284031215610eed575f5ffd5b81356001600160e01b031981168114610f04575f5ffd5b9392505050565b5f60208284031215610f1b575f5ffd5b5035919050565b6040516101c081016001600160401b0381118282101715610f5157634e487b7160e01b5f52604160045260245ffd5b60405290565b80356001600160a01b0381168114610f6d575f5ffd5b919050565b8035600381900b8114610f6d575f5ffd5b80356001600160401b0381168114610f6d575f5ffd5b803561ffff81168114610f6d575f5ffd5b803563ffffffff81168114610f6d575f5ffd5b5f6101c0828403128015610fcf575f5ffd5b50610fd8610f22565b610fe183610f57565b815260208381013590820152604080840135908201526060808401359082015261100d60808401610f72565b608082015261101e60a08401610f83565b60a082015261102f60c08401610f99565b60c082015261104060e08401610f83565b60e08201526110526101008401610f83565b6101008201526110656101208401610f83565b6101208201526110786101408401610f83565b61014082015261108b6101608401610f83565b61016082015261109e6101808401610faa565b6101808201526110b16101a08401610faa565b6101a08201529392505050565b634e487b7160e01b5f52602160045260245ffd5b600481106110ee57634e487b7160e01b5f52602160045260245ffd5b9052565b82815260408101610f0460208301846110d2565b5f5f60408385031215611117575f5ffd5b8235915061112760208401610f57565b90509250929050565b5f5f83601f840112611140575f5ffd5b5081356001600160401b03811115611156575f5ffd5b60208301915083602082850101111561116d575f5ffd5b9250929050565b5f5f5f5f60408587031215611187575f5ffd5b84356001600160401b0381111561119c575f5ffd5b6111a887828801611130565b90955093505060208501356001600160401b038111156111c6575f5ffd5b6111d287828801611130565b95989497509550505050565b634e487b7160e01b5f52601160045260245ffd5b808201808211156103cf576103cf6111de565b80820281158282048414176103cf576103cf6111de565b818382375f9101908152919050565b5f6020828403121561123b575f5ffd5b5051919050565b60608152836060820152838560808301375f608085830101525f6080601f19601f870116830101905083602083015282604083015295945050505050565b5f610100820190508982528860208301528760030b60408301526001600160401b03871660608301526001600160401b03861660808301528460a08301526112cb60c08301856110d2565b8260e08301529998505050505050505050565b5f60ff8316806112fc57634e487b7160e01b5f52601260045260245ffd5b8060ff8416069150509291505056fea264697066735822122071263f58dbbcde1cf84cac1aee059238c1b8054c2928935707ace086fa3d261264736f6c634300081c00330000000000000000000000000b144e07a0826182b6b59788c34b32bfa86fb7110000000000000000000000008c64a92e3a12f5ca4050b5fb90804bd24cd653cab78810f2e9557907cf9865797240661414e8102326cfdd8d8bc7879d58ca57cb000000000000000000000000000000000000000000000000016345785d8a00000000000000000000000000000000000000000000000000000de0b6b3a76400000000000000000000000000000000000000000000000000008ac7230489e80000",
        "nonce": "0x1",
        "chainId": "0x2105"
      },
      "additionalContracts": [],
      "isFixedGasLimit": false
    },
    {
      "hash": "0x18e3b8c1d617dd5c39bccf5132cd3c133ff21a612aecf3bb5667034c931d0edc",
      "transactionType": "CALL",
      "contractName": "Windy",
      "contractAddress": "0x8c64a92e3a12f5ca4050b5fb90804bd24cd653ca",
      "function": "grantRole(bytes32,address)",
      "arguments": [
        "0x9f2df0fed2c77648de5860a4cc508cd0818c85b8b8a1ab4ceeef8d981c8956a6",
        "0xc566aB14616662ae92095A72a8CC23BF62B6Ff02"
      ],
      "transaction": {
        "from": "0xce1339f8f499ab0ca276f949f636082c9c305167",
        "to": "0x8c64a92e3a12f5ca4050b5fb90804bd24cd653ca",
        "gas": "0x12627",
        "value": "0x0",
        "input": "0x2f2ff15d9f2df0fed2c77648de5860a4cc508cd0818c85b8b8a1ab4ceeef8d981c8956a6000000000000000000000000c566ab14616662ae92095a72a8cc23bf62b6ff02",
        "nonce": "0x2",
        "chainId": "0x2105"
      },
      "additionalContracts": [],
      "isFixedGasLimit": false
    },
    {
      "hash": "0x17758b3ed4c26e6ca18ee36e74d2d88080f4274d70888c628d01b2198205c20d",
      "transactionType": "CALL",
      "contractName": "Windy",
      "contractAddress": "0x8c64a92e3a12f5ca4050b5fb90804bd24cd653ca",
      "function": "grantRole(bytes32,address)",
      "arguments": [
        "0x0000000000000000000000000000000000000000000000000000000000000000",
        "0x1143569f0B6D17B51b7dfff9Dfa8BbF1AdCe75D7"
      ],
      "transaction": {
        "from": "0xce1339f8f499ab0ca276f949f636082c9c305167",
        "to": "0x8c64a92e3a12f5ca4050b5fb90804bd24cd653ca",
        "gas": "0x123f6",
        "value": "0x0",
        "input": "0x2f2ff15d00000000000000000000000000000000000000000000000000000000000000000000000000000000000000001143569f0b6d17b51b7dfff9dfa8bbf1adce75d7",
        "nonce": "0x3",
        "chainId": "0x2105"
      },
      "additionalContracts": [],
      "isFixedGasLimit": false
    },
    {
      "hash": "0x335c312b24a83b12bc0ffbd4fd570da57102c5dcf4e9a3d8eabf2126f374018f",
      "transactionType": "CALL",
      "contractName": "ZkExecutionMinterV2",
      "contractAddress": "0xc566ab14616662ae92095a72a8cc23bf62b6ff02",
      "function": "grantRole(bytes32,address)",
      "arguments": [
        "0x0000000000000000000000000000000000000000000000000000000000000000",
        "0x1143569f0B6D17B51b7dfff9Dfa8BbF1AdCe75D7"
      ],
      "transaction": {
        "from": "0xce1339f8f499ab0ca276f949f636082c9c305167",
        "to": "0xc566ab14616662ae92095a72a8cc23bf62b6ff02",
        "gas": "0x11397",
        "value": "0x0",
        "input": "0x2f2ff15d00000000000000000000000000000000000000000000000000000000000000000000000000000000000000001143569f0b6d17b51b7dfff9dfa8bbf1adce75d7",
        "nonce": "0x4",
        "chainId": "0x2105"
      },
      "additionalContracts": [],
      "isFixedGasLimit": false
    },
    {
      "hash": "0x4ef348581ddb5e8f416412f3aeff507b1a1653bd87fc516df5019a40e530a6e4",
      "transactionType": "CALL",
      "contractName": "ZkExecutionMinterV2",
      "contractAddress": "0xc566ab14616662ae92095a72a8cc23bf62b6ff02",
      "function": "grantRole(bytes32,address)",
      "arguments": [
        "0x65d7a28e3265b37a6474929f336521b332c1681b933f6cb9f3376673440d862a",
        "0x1143569f0B6D17B51b7dfff9Dfa8BbF1AdCe75D7"
      ],
      "transaction": {
        "from": "0xce1339f8f499ab0ca276f949f636082c9c305167",
        "to": "0xc566ab14616662ae92095a72a8cc23bf62b6ff02",
        "gas": "0x115a9",
        "value": "0x0",
        "input": "0x2f2ff15d65d7a28e3265b37a6474929f336521b332c1681b933f6cb9f3376673440d862a0000000000000000000000001143569f0b6d17b51b7dfff9dfa8bbf1adce75d7",
        "nonce": "0x5",
        "chainId": "0x2105"
      },
      "additionalContracts": [],
      "isFixedGasLimit": false
    },
    {
      "hash": "0x32ac659ef26ef4ddc05ca0724cf8502b783caf37c9639fe628a871c13e34a77e",
      "transactionType": "CALL",
      "contractName": "Windy",
      "contractAddress": "0x8c64a92e3a12f5ca4050b5fb90804bd24cd653ca",
      "function": "renounceRole(bytes32,address)",
      "arguments": [
        "0x0000000000000000000000000000000000000000000000000000000000000000",
        "0xCE1339F8F499aB0cA276F949F636082c9C305167"
      ],
      "transaction": {
        "from": "0xce1339f8f499ab0ca276f949f636082c9c305167",
        "to": "0x8c64a92e3a12f5ca4050b5fb90804bd24cd653ca",
        "gas": "0x853c",
        "value": "0x0",
        "input": "0x36568abe0000000000000000000000000000000000000000000000000000000000000000000000000000000000000000ce1339f8f499ab0ca276f949f636082c9c305167",
        "nonce": "0x6",
        "chainId": "0x2105"
      },
      "additionalContracts": [],
      "isFixedGasLimit": false
    },
    {
      "hash": "0x1a3e4a6d010f9b298926516e6a498cd92189648a7a72e0cbfac5e2a88ca4099d",
      "transactionType": "CALL",
      "contractName": "ZkExecutionMinterV2",
      "contractAddress": "0xc566ab14616662ae92095a72a8cc23bf62b6ff02",
      "function": "renounceRole(bytes32,address)",
      "arguments": [
        "0x0000000000000000000000000000000000000000000000000000000000000000",
        "0xCE1339F8F499aB0cA276F949F636082c9C305167"
      ],
      "transaction": {
        "from": "0xce1339f8f499ab0ca276f949f636082c9c305167",
        "to": "0xc566ab14616662ae92095a72a8cc23bf62b6ff02",
        "gas": "0x84d8",
        "value": "0x0",
        "input": "0x36568abe0000000000000000000000000000000000000000000000000000000000000000000000000000000000000000ce1339f8f499ab0ca276f949f636082c9c305167",
        "nonce": "0x7",
        "chainId": "0x2105"
      },
      "additionalContracts": [],
      "isFixedGasLimit": false
    },
    {
      "hash": "0x4d3663625308cdf14c68a849f0580483232c019c53ae1a587a35ace13c46247f",
      "transactionType": "CALL",
      "contractName": "ZkExecutionMinterV2",
      "contractAddress": "0xc566ab14616662ae92095a72a8cc23bf62b6ff02",
      "function": "renounceRole(bytes32,address)",
      "arguments": [
        "0x65d7a28e3265b37a6474929f336521b332c1681b933f6cb9f3376673440d862a",
        "0xCE1339F8F499aB0cA276F949F636082c9C305167"
      ],
      "transaction": {
        "from": "0xce1339f8f499ab0ca276f949f636082c9c305167",
        "to": "0xc566ab14616662ae92095a72a8cc23bf62b6ff02",
        "gas": "0x86ea",
        "value": "0x0",
        "input": "0x36568abe65d7a28e3265b37a6474929f336521b332c1681b933f6cb9f3376673440d862a000000000000000000000000ce1339f8f499ab0ca276f949f636082c9c305167",
        "nonce": "0x8",
        "chainId": "0x2105"
      },
      "additionalContracts": [],
      "isFixedGasLimit": false
    }
  ],
  "receipts": [
    {
      "type": "0x2",
      "status": "0x1",
      "cumulativeGasUsed": "0x331914d",
      "logs": [
        {
          "address": "0x8c64a92e3a12f5ca4050b5fb90804bd24cd653ca",
          "topics": [
            "0x2f8788117e7eff1d82e926ec794901d17c78024a50270940304540a733656f0d",
            "0x0000000000000000000000000000000000000000000000000000000000000000",
            "0x000000000000000000000000ce1339f8f499ab0ca276f949f636082c9c305167",
            "0x000000000000000000000000ce1339f8f499ab0ca276f949f636082c9c305167"
          ],
          "data": "0x",
          "blockHash": "0x0000000000000000000000000000000000000000000000000000000000000000",
          "blockNumber": "0x2bc487b",
          "blockTimestamp": "0x6a02edd9",
          "transactionHash": "0x335c312b24a83b12bc0ffbd4fd570da57102c5dcf4e9a3d8eabf2126f374018f",
          "transactionIndex": "0x13b",
          "logIndex": "0x3f2",
          "removed": false
        }
      ],
      "logsBloom": "0x00000004000000000000000000000000000000000000000000000000000000000000000000000000000000000000000000000000000000004000000000000000000000000020000000000000000000000000000000000000000000000000000100000000020000000000000000000800000000000000000000000000000000000000000000000000000000000000000000000000000000000000000000000000000000000000000000000000000000000000000000400000001000000000000000000002000000000000000000000000000040000000000100000000000020000000000000000000000000000000000000000000000000000000000000000000",
      "transactionHash": "0x335c312b24a83b12bc0ffbd4fd570da57102c5dcf4e9a3d8eabf2126f374018f",
      "transactionIndex": "0x13b",
      "blockHash": "0x0000000000000000000000000000000000000000000000000000000000000000",
      "blockNumber": "0x2bc487b",
      "gasUsed": "0xc3604",
      "effectiveGasPrice": "0x4dd1e0",
      "blobGasUsed": "0x50cb0",
      "from": "0xce1339f8f499ab0ca276f949f636082c9c305167",
      "to": null,
      "contractAddress": "0x8c64a92e3a12f5ca4050b5fb90804bd24cd653ca",
      "l1GasPrice": "0x39d4f9a3",
      "l1GasUsed": "0x8bc0",
      "l1Fee": "0x238e8f180",
      "l1BaseFeeScalar": "0x8dd",
      "l1BlobBaseFee": "0x3666509",
      "l1BlobBaseFeeScalar": "0x101c12",
      "daFootprintGasScalar": "0x94"
    },
    {
      "type": "0x2",
      "status": "0x1",
      "cumulativeGasUsed": "0x370f99f",
      "logs": [
        {
          "address": "0xc566ab14616662ae92095a72a8cc23bf62b6ff02",
          "topics": [
            "0x2f8788117e7eff1d82e926ec794901d17c78024a50270940304540a733656f0d",
            "0x0000000000000000000000000000000000000000000000000000000000000000",
            "0x000000000000000000000000ce1339f8f499ab0ca276f949f636082c9c305167",
            "0x000000000000000000000000ce1339f8f499ab0ca276f949f636082c9c305167"
          ],
          "data": "0x",
          "blockHash": "0x0000000000000000000000000000000000000000000000000000000000000000",
          "blockNumber": "0x2bc487b",
          "blockTimestamp": "0x6a02edd9",
          "transactionHash": "0x4ef348581ddb5e8f416412f3aeff507b1a1653bd87fc516df5019a40e530a6e4",
          "transactionIndex": "0x13d",
          "logIndex": "0x3f3",
          "removed": false
        },
        {
          "address": "0xc566ab14616662ae92095a72a8cc23bf62b6ff02",
          "topics": [
            "0x2f8788117e7eff1d82e926ec794901d17c78024a50270940304540a733656f0d",
            "0x65d7a28e3265b37a6474929f336521b332c1681b933f6cb9f3376673440d862a",
            "0x000000000000000000000000ce1339f8f499ab0ca276f949f636082c9c305167",
            "0x000000000000000000000000ce1339f8f499ab0ca276f949f636082c9c305167"
          ],
          "data": "0x",
          "blockHash": "0x0000000000000000000000000000000000000000000000000000000000000000",
          "blockNumber": "0x2bc487b",
          "blockTimestamp": "0x6a02edd9",
          "transactionHash": "0x4ef348581ddb5e8f416412f3aeff507b1a1653bd87fc516df5019a40e530a6e4",
          "transactionIndex": "0x13d",
          "logIndex": "0x3f4",
          "removed": false
        }
      ],
      "logsBloom": "0x00000004000000000000000000000000000000000000000000000000000000000000000000000000000000000000002000000000000000000000000000000000000000000020000000000080000000000000000000000000000000000000000100000000020000000000000000000800000000000000000000000000000000000000000000000000000000000000008000000000000000000000000000000000000000000000000000000000000000000000010000000000001000000000000000000002000000000000000000000000000000000000000100002000000020000000000000000000000000000000000000000400000000000000000000000000",
      "transactionHash": "0x4ef348581ddb5e8f416412f3aeff507b1a1653bd87fc516df5019a40e530a6e4",
      "transactionIndex": "0x13d",
      "blockHash": "0x0000000000000000000000000000000000000000000000000000000000000000",
      "blockNumber": "0x2bc487b",
      "gasUsed": "0x11ec42",
      "effectiveGasPrice": "0x4dd1e0",
      "blobGasUsed": "0x71ac8",
      "from": "0xce1339f8f499ab0ca276f949f636082c9c305167",
      "to": null,
      "contractAddress": "0xc566ab14616662ae92095a72a8cc23bf62b6ff02",
      "l1GasPrice": "0x39d4f9a3",
      "l1GasUsed": "0xc4a2",
      "l1Fee": "0x238e8f180",
      "l1BaseFeeScalar": "0x8dd",
      "l1BlobBaseFee": "0x3666509",
      "l1BlobBaseFeeScalar": "0x101c12",
      "daFootprintGasScalar": "0x94"
    },
    {
      "type": "0x2",
      "status": "0x1",
      "cumulativeGasUsed": "0x371c2c1",
      "logs": [
        {
          "address": "0x8c64a92e3a12f5ca4050b5fb90804bd24cd653ca",
          "topics": [
            "0x2f8788117e7eff1d82e926ec794901d17c78024a50270940304540a733656f0d",
            "0x9f2df0fed2c77648de5860a4cc508cd0818c85b8b8a1ab4ceeef8d981c8956a6",
            "0x000000000000000000000000c566ab14616662ae92095a72a8cc23bf62b6ff02",
            "0x000000000000000000000000ce1339f8f499ab0ca276f949f636082c9c305167"
          ],
          "data": "0x",
          "blockHash": "0x0000000000000000000000000000000000000000000000000000000000000000",
          "blockNumber": "0x2bc487b",
          "blockTimestamp": "0x6a02edd9",
          "transactionHash": "0x8ec7640ccfed9c2d3787be6bf47d8a612abb7394e4a973e511ebb99634d56d7c",
          "transactionIndex": "0x13e",
          "logIndex": "0x3f5",
          "removed": false
        }
      ],
      "logsBloom": "0x00000004000000000000000000000000000000000000000000000000000000000000000000000000000000000000004000000000000000004000000000000000000000000020000000000000000000000000000000000000000000000000000100000000000000000000000000000010000000000000000000000000001000000800000000000000000000000000000000000000000000000000080000000000000000000000000000000000000000000000000000400000001000000000000000000002000000000000000000000000001040000000000100000000000000000000000000000000000000000000000000000000000000000000000000000000",
      "transactionHash": "0x8ec7640ccfed9c2d3787be6bf47d8a612abb7394e4a973e511ebb99634d56d7c",
      "transactionIndex": "0x13e",
      "blockHash": "0x0000000000000000000000000000000000000000000000000000000000000000",
      "blockNumber": "0x2bc487b",
      "gasUsed": "0xc922",
      "effectiveGasPrice": "0x4dd1e0",
      "blobGasUsed": "0x3cb4",
      "from": "0xce1339f8f499ab0ca276f949f636082c9c305167",
      "to": "0x8c64a92e3a12f5ca4050b5fb90804bd24cd653ca",
      "contractAddress": null,
      "l1GasPrice": "0x39d4f9a3",
      "l1GasUsed": "0x697",
      "l1Fee": "0x238e8f180",
      "l1BaseFeeScalar": "0x8dd",
      "l1BlobBaseFee": "0x3666509",
      "l1BlobBaseFeeScalar": "0x101c12",
      "daFootprintGasScalar": "0x94"
    },
    {
      "type": "0x2",
      "status": "0x1",
      "cumulativeGasUsed": "0x3728a63",
      "logs": [
        {
          "address": "0x8c64a92e3a12f5ca4050b5fb90804bd24cd653ca",
          "topics": [
            "0x2f8788117e7eff1d82e926ec794901d17c78024a50270940304540a733656f0d",
            "0x0000000000000000000000000000000000000000000000000000000000000000",
            "0x0000000000000000000000001143569f0b6d17b51b7dfff9dfa8bbf1adce75d7",
            "0x000000000000000000000000ce1339f8f499ab0ca276f949f636082c9c305167"
          ],
          "data": "0x",
          "blockHash": "0x0000000000000000000000000000000000000000000000000000000000000000",
          "blockNumber": "0x2bc487b",
          "blockTimestamp": "0x6a02edd9",
          "transactionHash": "0x18e3b8c1d617dd5c39bccf5132cd3c133ff21a612aecf3bb5667034c931d0edc",
          "transactionIndex": "0x13f",
          "logIndex": "0x3f6",
          "removed": false
        }
      ],
      "logsBloom": "0x00000004000000000000000000000000000000000000000000000000100000000000000000000000000000000000000000000000000000004000000000000100000000000020000000000000000000000000000000000000000000000000000100000000020000000000000000000800000000000000000000000000000000000000000000000000000000000000000000000000000000000000000000000000000000000000000000000000000000000000000000400000001000000000000000200002000000000000000000000000000040000000000100000000000020000000000000000000000000000000000000000000000000000000000000000000",
      "transactionHash": "0x18e3b8c1d617dd5c39bccf5132cd3c133ff21a612aecf3bb5667034c931d0edc",
      "transactionIndex": "0x13f",
      "blockHash": "0x0000000000000000000000000000000000000000000000000000000000000000",
      "blockNumber": "0x2bc487b",
      "gasUsed": "0xc7a2",
      "effectiveGasPrice": "0x4dd1e0",
      "blobGasUsed": "0x39d0",
      "from": "0xce1339f8f499ab0ca276f949f636082c9c305167",
      "to": "0x8c64a92e3a12f5ca4050b5fb90804bd24cd653ca",
      "contractAddress": null,
      "l1GasPrice": "0x39d4f9a3",
      "l1GasUsed": "0x640",
      "l1Fee": "0x238e8f180",
      "l1BaseFeeScalar": "0x8dd",
      "l1BlobBaseFee": "0x3666509",
      "l1BlobBaseFeeScalar": "0x101c12",
      "daFootprintGasScalar": "0x94"
    },
    {
      "type": "0x2",
      "status": "0x1",
      "cumulativeGasUsed": "0x37351e9",
      "logs": [
        {
          "address": "0xc566ab14616662ae92095a72a8cc23bf62b6ff02",
          "topics": [
            "0x2f8788117e7eff1d82e926ec794901d17c78024a50270940304540a733656f0d",
            "0x0000000000000000000000000000000000000000000000000000000000000000",
            "0x0000000000000000000000001143569f0b6d17b51b7dfff9dfa8bbf1adce75d7",
            "0x000000000000000000000000ce1339f8f499ab0ca276f949f636082c9c305167"
          ],
          "data": "0x",
          "blockHash": "0x0000000000000000000000000000000000000000000000000000000000000000",
          "blockNumber": "0x2bc487b",
          "blockTimestamp": "0x6a02edd9",
          "transactionHash": "0x1a3e4a6d010f9b298926516e6a498cd92189648a7a72e0cbfac5e2a88ca4099d",
          "transactionIndex": "0x140",
          "logIndex": "0x3f7",
          "removed": false
        }
      ],
      "logsBloom": "0x00000004000000000000000000000000000000000000000000000000100000000000000000000000000000000000002000000000000000000000000000000100000000000020000000000080000000000000000000000000000000000000000100000000020000000000000000000800000000000000000000000000000000000000000000000000000000000000000000000000000000000000000000000000000000000000000000000000000000000000010000000000001000000000000000200002000000000000000000000000000000000000000100000000000020000000000000000000000000000000000000000000000000000000000000000000",
      "transactionHash": "0x1a3e4a6d010f9b298926516e6a498cd92189648a7a72e0cbfac5e2a88ca4099d",
      "transactionIndex": "0x140",
      "blockHash": "0x0000000000000000000000000000000000000000000000000000000000000000",
      "blockNumber": "0x2bc487b",
      "gasUsed": "0xc786",
      "effectiveGasPrice": "0x4dd1e0",
      "blobGasUsed": "0x39d0",
      "from": "0xce1339f8f499ab0ca276f949f636082c9c305167",
      "to": "0xc566ab14616662ae92095a72a8cc23bf62b6ff02",
      "contractAddress": null,
      "l1GasPrice": "0x39d4f9a3",
      "l1GasUsed": "0x640",
      "l1Fee": "0x238e8f180",
      "l1BaseFeeScalar": "0x8dd",
      "l1BlobBaseFee": "0x3666509",
      "l1BlobBaseFeeScalar": "0x101c12",
      "daFootprintGasScalar": "0x94"
    },
    {
      "type": "0x2",
      "status": "0x1",
      "cumulativeGasUsed": "0x3741aef",
      "logs": [
        {
          "address": "0xc566ab14616662ae92095a72a8cc23bf62b6ff02",
          "topics": [
            "0x2f8788117e7eff1d82e926ec794901d17c78024a50270940304540a733656f0d",
            "0x65d7a28e3265b37a6474929f336521b332c1681b933f6cb9f3376673440d862a",
            "0x0000000000000000000000001143569f0b6d17b51b7dfff9dfa8bbf1adce75d7",
            "0x000000000000000000000000ce1339f8f499ab0ca276f949f636082c9c305167"
          ],
          "data": "0x",
          "blockHash": "0x0000000000000000000000000000000000000000000000000000000000000000",
          "blockNumber": "0x2bc487b",
          "blockTimestamp": "0x6a02edd9",
          "transactionHash": "0x17758b3ed4c26e6ca18ee36e74d2d88080f4274d70888c628d01b2198205c20d",
          "transactionIndex": "0x141",
          "logIndex": "0x3f8",
          "removed": false
        }
      ],
      "logsBloom": "0x00000004000000000000000000000000000000000000000000000000100000000000000000000000000000000000002000000000000000000000000000000100000000000020000000000080000000000000000000000000000000000000000100000000000000000000000000000000000000000000000000000000000000000000000000000000000000000000008000000000000000000000000000000000000000000000000000000000000000000000010000000000001000000000000000200002000000000000000000000000000000000000000100002000000000000000000000000000000000000000000000000400000000000000000000000000",
      "transactionHash": "0x17758b3ed4c26e6ca18ee36e74d2d88080f4274d70888c628d01b2198205c20d",
      "transactionIndex": "0x141",
      "blockHash": "0x0000000000000000000000000000000000000000000000000000000000000000",
      "blockNumber": "0x2bc487b",
      "gasUsed": "0xc906",
      "effectiveGasPrice": "0x4dd1e0",
      "blobGasUsed": "0x3cb4",
      "from": "0xce1339f8f499ab0ca276f949f636082c9c305167",
      "to": "0xc566ab14616662ae92095a72a8cc23bf62b6ff02",
      "contractAddress": null,
      "l1GasPrice": "0x39d4f9a3",
      "l1GasUsed": "0x697",
      "l1Fee": "0x238e8f180",
      "l1BaseFeeScalar": "0x8dd",
      "l1BlobBaseFee": "0x3666509",
      "l1BlobBaseFeeScalar": "0x101c12",
      "daFootprintGasScalar": "0x94"
    },
    {
      "type": "0x2",
      "status": "0x1",
      "cumulativeGasUsed": "0x3747b65",
      "logs": [
        {
          "address": "0x8c64a92e3a12f5ca4050b5fb90804bd24cd653ca",
          "topics": [
            "0xf6391f5c32d9c69d2a47ea670b442974b53935d1edc7fd64eb21e047a839171b",
            "0x0000000000000000000000000000000000000000000000000000000000000000",
            "0x000000000000000000000000ce1339f8f499ab0ca276f949f636082c9c305167",
            "0x000000000000000000000000ce1339f8f499ab0ca276f949f636082c9c305167"
          ],
          "data": "0x",
          "blockHash": "0x0000000000000000000000000000000000000000000000000000000000000000",
          "blockNumber": "0x2bc487b",
          "blockTimestamp": "0x6a02edd9",
          "transactionHash": "0x32ac659ef26ef4ddc05ca0724cf8502b783caf37c9639fe628a871c13e34a77e",
          "transactionIndex": "0x142",
          "logIndex": "0x3f9",
          "removed": false
        }
      ],
      "logsBloom": "0x00000000000000000000000000000000000000000000000000000000000000000000000000000000000000000000000000200000000000004000000000000000000000000020000000000000000000000000000000000000000000000000000140000000020000000000000000000800000000000000000000000000000000000000000040000000000000000000000000000000000000000000000000000000000000000000000000000000000000000000000000400000000000000000000000000002000000000000000000000000000040000000000000000000000020000000000000000000000000000000000000000000000000000000000000000000",
      "transactionHash": "0x32ac659ef26ef4ddc05ca0724cf8502b783caf37c9639fe628a871c13e34a77e",
      "transactionIndex": "0x142",
      "blockHash": "0x0000000000000000000000000000000000000000000000000000000000000000",
      "blockNumber": "0x2bc487b",
      "gasUsed": "0x6076",
      "effectiveGasPrice": "0x4dd1e0",
      "blobGasUsed": "0x39d0",
      "from": "0xce1339f8f499ab0ca276f949f636082c9c305167",
      "to": "0x8c64a92e3a12f5ca4050b5fb90804bd24cd653ca",
      "contractAddress": null,
      "l1GasPrice": "0x39d4f9a3",
      "l1GasUsed": "0x640",
      "l1Fee": "0x238e8f180",
      "l1BaseFeeScalar": "0x8dd",
      "l1BlobBaseFee": "0x3666509",
      "l1BlobBaseFeeScalar": "0x101c12",
      "daFootprintGasScalar": "0x94"
    },
    {
      "type": "0x2",
      "status": "0x1",
      "cumulativeGasUsed": "0x374db93",
      "logs": [
        {
          "address": "0xc566ab14616662ae92095a72a8cc23bf62b6ff02",
          "topics": [
            "0xf6391f5c32d9c69d2a47ea670b442974b53935d1edc7fd64eb21e047a839171b",
            "0x0000000000000000000000000000000000000000000000000000000000000000",
            "0x000000000000000000000000ce1339f8f499ab0ca276f949f636082c9c305167",
            "0x000000000000000000000000ce1339f8f499ab0ca276f949f636082c9c305167"
          ],
          "data": "0x",
          "blockHash": "0x0000000000000000000000000000000000000000000000000000000000000000",
          "blockNumber": "0x2bc487b",
          "blockTimestamp": "0x6a02edd9",
          "transactionHash": "0x4d3663625308cdf14c68a849f0580483232c019c53ae1a587a35ace13c46247f",
          "transactionIndex": "0x143",
          "logIndex": "0x3fa",
          "removed": false
        }
      ],
      "logsBloom": "0x00000000000000000000000000000000000000000000000000000000000000000000000000000000000000000000002000200000000000000000000000000000000000000020000000000080000000000000000000000000000000000000000140000000020000000000000000000800000000000000000000000000000000000000000040000000000000000000000000000000000000000000000000000000000000000000000000000000000000000000010000000000000000000000000000000002000000000000000000000000000000000000000000000000000020000000000000000000000000000000000000000000000000000000000000000000",
      "transactionHash": "0x4d3663625308cdf14c68a849f0580483232c019c53ae1a587a35ace13c46247f",
      "transactionIndex": "0x143",
      "blockHash": "0x0000000000000000000000000000000000000000000000000000000000000000",
      "blockNumber": "0x2bc487b",
      "gasUsed": "0x602e",
      "effectiveGasPrice": "0x4dd1e0",
      "blobGasUsed": "0x39d0",
      "from": "0xce1339f8f499ab0ca276f949f636082c9c305167",
      "to": "0xc566ab14616662ae92095a72a8cc23bf62b6ff02",
      "contractAddress": null,
      "l1GasPrice": "0x39d4f9a3",
      "l1GasUsed": "0x640",
      "l1Fee": "0x238e8f180",
      "l1BaseFeeScalar": "0x8dd",
      "l1BlobBaseFee": "0x3666509",
      "l1BlobBaseFeeScalar": "0x101c12",
      "daFootprintGasScalar": "0x94"
    },
    {
      "type": "0x2",
      "status": "0x1",
      "cumulativeGasUsed": "0x3753d41",
      "logs": [
        {
          "address": "0xc566ab14616662ae92095a72a8cc23bf62b6ff02",
          "topics": [
            "0xf6391f5c32d9c69d2a47ea670b442974b53935d1edc7fd64eb21e047a839171b",
            "0x65d7a28e3265b37a6474929f336521b332c1681b933f6cb9f3376673440d862a",
            "0x000000000000000000000000ce1339f8f499ab0ca276f949f636082c9c305167",
            "0x000000000000000000000000ce1339f8f499ab0ca276f949f636082c9c305167"
          ],
          "data": "0x",
          "blockHash": "0x0000000000000000000000000000000000000000000000000000000000000000",
          "blockNumber": "0x2bc487b",
          "blockTimestamp": "0x6a02edd9",
          "transactionHash": "0xe8c0f7b5844877d74ff36962360a5d5531abf9083bf627b18e616b90aaa3af8f",
          "transactionIndex": "0x144",
          "logIndex": "0x3fb",
          "removed": false
        }
      ],
      "logsBloom": "0x00000000000000000000000000000000000000000000000000000000000000000000000000000000000000000000002000200000000000000000000000000000000000000020000000000080000000000000000000000000000000000000000140000000000000000000000000000000000000000000000000000000000000000000000040000000000000000000008000000000000000000000000000000000000000000000000000000000000000000000010000000000000000000000000000000002000000000000000000000000000000000000000000002000000000000000000000000000000000000000000000000400000000000000000000000000",
      "transactionHash": "0xe8c0f7b5844877d74ff36962360a5d5531abf9083bf627b18e616b90aaa3af8f",
      "transactionIndex": "0x144",
      "blockHash": "0x0000000000000000000000000000000000000000000000000000000000000000",
      "blockNumber": "0x2bc487b",
      "gasUsed": "0x61ae",
      "effectiveGasPrice": "0x4dd1e0",
      "blobGasUsed": "0x3c20",
      "from": "0xce1339f8f499ab0ca276f949f636082c9c305167",
      "to": "0xc566ab14616662ae92095a72a8cc23bf62b6ff02",
      "contractAddress": null,
      "l1GasPrice": "0x39d4f9a3",
      "l1GasUsed": "0x68a",
      "l1Fee": "0x238e8f180",
      "l1BaseFeeScalar": "0x8dd",
      "l1BlobBaseFee": "0x3666509",
      "l1BlobBaseFeeScalar": "0x101c12",
      "daFootprintGasScalar": "0x94"
    }
  ],
  "libraries": [],
  "pending": [],
  "returns": {
    "wndy": {
      "internal_type": "contract Windy",
      "value": "0x8c64A92e3a12f5Ca4050b5Fb90804Bd24Cd653CA"
    },
    "minter": {
      "internal_type": "contract ZkExecutionMinterV2",
      "value": "0xc566aB14616662ae92095A72a8CC23BF62B6Ff02"
    }
  },
  "timestamp": 1778576882445,
  "chain": 8453,
  "commit": "a2809ac"
}